:101C000011241FBE04E00EBF0FEF0DBFA89584B7CF
:101C1000877F84BFE0E6F0E0808188618083108266
:101C200011E0A0E0B1E0E8ECFFE102C005900D9208
:101C3000A830B107D9F7CDB7DEB7C854D109DEBF98
:101C4000CDBF1092C4001092C00088E18093C10003
:101C500086E08093C200512C88E0E0E0F1E0DE01F4
:101C6000AF5BBF4F01900D928A95E1F785E085BD8E
:101C7000259A3D9A2D9AE12CF12C412C00E010E0A0
:101C8000A12CB12CCE0101966C0135E0232EA89B2E
:101C900025C0A89AEE2099F0F39499E59F15F0F4E9
:101CA00080E09FE32091C00025FFFCCF9093C60009
:101CB0008F5F8038B9F788E080936000FFCF43944E
:101CC000FEE0F41558F415BC1092C1001092C20049
:101CD00014B815B817B818B8F50109958091C00067
:101CE00087FFD7C08091C600813509F4C4C0F0F4E5
:101CF000853409F4A3C050F4813409F446C0823419
:101D000009F472C08B3109F0B9C0C0C08C3409F439
:101D1000AEC028F4863409F0B1C080E0ADC08E3486
:101D200009F4A7C0803509F4A2C0A8C0853609F41B
:101D300083C0E0F4843509F496C060F4833509F07B
:101D40009DC07E01F1E4EF0EF11C470137E0830EE8
:101D5000911C7CC0863509F481C0823609F08EC0A2
:101D600089E5CED080E0CCD080E47BC0803709F418
:101D70007CC018F48736F9F081C0833709F460C05D
:101D8000843709F07BC080E06CC08091C00087FF81
:101D9000FCCF8091C6009091C00097FFFCCF0091CE
:101DA000C60010E0182B8091C00085FFFCCF8DE0AD
:101DB0008093C6006DC08091C00087FFFCCF8091EA
:101DC000C6008091C00087FFFCCF6091C600809163
:101DD000C00087FFFCCF4091C6002D984598C801F0
:101DE000880F991F9BD054C08091C00087FFFCCF03
:101DF0008091C6008091C00087FFFCCF3090C60064
:101E00008091C00087FFFCCF8091C6002D9A459A33
:101E10002D98F6018E2F8C19831540F48091C00007
:101E200087FFFCCF8091C6008193F4CF3801660C08
:101E3000771C689450F82CC09FD02AC0B0D028C01E
:101E40008FE05ED083E95CD08EE10BC0F701819119
:101E50007F0156D08E149F04C9F718C081E350D07B
:101E600086E34ED015C053D002C083E5FACF8DE093
:101E7000F8CF83E001C082E077D0F3CF8091C0003B
:101E800085FFFCCFFFE3F093C60002C0EE24E3948D
:101E9000F12C51FE08C007B600FC05C031E137BF88
:101EA000E895E89451F850FEF2CE51FCF0CE80E077
:101EB0008315B8F4A82FB0E0F601EA0FFB1F90815C
:101EC000E2E0F0E0EC0FFD1FEA0FFB1F208131E0A4
:101ED000FD01092E122E30935700E89511248E5FD4
:101EE000E7CFF30127BEE895689451F8E89450F8DD
:101EF0008091C00085FFFCCF8DE08093C600C7CEE7
:101F00009091C00095FFFCCF8093C600089580910A
:101F1000C00087FFFCCF8091C60008950F931F93E8
:101F2000CF93DF93062F07B600FE06C007B600FC6E
:101F3000FDCF21E127BFE895EC0110E0101779F003
:101F4000FE01C895802DDCDF1F3131F487EC90E075
:101F50000197F1F700C000001F5F2196EFCFDF91DE
:101F6000CF911F910F91089599E0FF27E82F90934B
:101F70005700C895802D0895E0E0F0E083E007B6B3
:101F800000FCFDCF87BFE89507B600FCFDCFE05C05
:101F9000FF4FE1159CE1F90791F78DE0B1CF14B83F
:101FA00015B817B818B88DE0ABDF8DE0A9DF8091C8
:101FB000C00085FFFCCF15BC1092C1001092C2007A
:081FC000E0E0F0E0099508954E
:081FC800464478426F6F74007B
:0400000300001C00DD
:00000001FF
