:107C000011241FBE08E00EBF0FEF0DBFA89584B76B
:107C1000877F84BFE0E6F0E0808188618083108206
:107C200011E0A0E0B1E0E0EFFFE702C005900D92A7
:107C3000A830B107D9F7CDB7DEB7C858D109DEBF34
:107C4000CDBF1092C4001092C00088E18093C100A3
:107C500086E08093C200512C88E0E0E0F1E0DE0194
:107C6000AF57BF4F01900D928A95E1F785E085BD32
:107C7000259A3D9A2D9AC12CD12C412C00E010E080
:107C8000A12CB12C31E8832E912C8C0E9D1E37E057
:107C9000830E911CCE0101967C0145E0242EA89B09
:107CA00025C0A89ACC2099F0D39499E59D15F0F4BD
:107CB00080E09FE32091C00025FFFCCF9093C60099
:107CC0008F5F8038B9F788E080936000FFCF4394DE
:107CD000FEE0F41558F415BC1092C1001092C200D9
:107CE00014B815B817B818B8F50109958091C000F7
:107CF00087FFDFC08091C600813509F4CBC0F0F466
:107D0000853409F4A3C050F4813409F444C08234AA
:107D100009F471C08B3109F0C1C0C8C08C3409F4BA
:107D2000B5C028F4863409F0B9C080E0B4C08E3400
:107D300009F4AEC0803509F4A9C0B0C0853609F495
:107D400082C0D0F4843509F49CC040F4833509F036
:107D5000A5C0CE018F579F4F6C0183C0863509F4B3
:107D600089C0823609F09AC089E50E94903F80E080
:107D70000E94903F80E882C0803709F485C018F4E3
:107D80008736F9F08BC0833709F463C0843709F074
:107D900085C080E073C08091C00087FFFCCF8091D8
:107DA000C6009091C00097FFFCCF0091C60010E084
:107DB000182B8091C00085FFFCCF8DE08093C6001A
:107DC00077C08091C00087FFFCCF8091C600809172
:107DD000C00087FFFCCF6091C6008091C00087FF84
:107DE000FCCF4091C6002D984598C801880F991F77
:107DF0000E949E3F5DC08091C00087FFFCCF8091B4
:107E0000C6008091C00087FFFCCF3090C6008091F3
:107E1000C00087FFFCCF8091C6002D9A459A2D980F
:107E2000F7018E2F8E19831540F48091C00087FFD3
:107E3000FCCF8091C6008193F4CF3801660C771C8B
:107E4000689450F835C00E94CD3F32C00E94E13F97
:107E50002FC08FE00E94903F85E90E94903F8EE105
:107E60000DC0F60181916F010E94903F8C149D041A
:107E7000C1F71CC081E30E94903F86E30E94903FBF
:107E800017C00E94973F02C083E5F8CF8DE0F6CF80
:107E900083E001C082E00E94C53FF0CF8091C00026
:107EA00085FFFCCFFFE3F093C60002C0CC24C3944F
:107EB000D12C51FE08C007B600FC05C031E137BF28
:107EC000E895E89451F850FEEACE51FCE8CE80E007
:107ED0008315B8F4A82FB0E0F701EA0FFB1F9081DB
:107EE000E2E0F0E0EC0FFD1FEA0FFB1F208131E024
:107EF000FD01092E122E30935700E89511248E5F54
:107F0000E7CFF30127BEE895689451F8E89450F85C
:107F10008091C00085FFFCCF8DE08093C600BFCE6E
:107F20009091C00095FFFCCF8093C600089580918A
:107F3000C00087FFFCCF8091C60008950F931F9368
:107F4000CF93DF93062F07B600FE06C007B600FCEE
:107F5000FDCF21E127BFE895EC0110E0101781F07B
:107F6000FE01C895802D0E94903F1F3131F487ECAF
:107F700090E00197F1F700C000001F5F2196EECF5F
:107F8000DF91CF911F910F91089599E0FF27E82F7E
:107F900090935700C895802D0895E0E0F0E083E0CD
:107FA00007B600FCFDCF87BFE89507B600FCFDCF04
:107FB000E058FF4FE1159CE7F90791F78DE00C942D
:107FC000903F14B815B817B818B88DE00E94903FCC
:107FD0008DE00E94903F8091C00085FFFCCF15BCD2
:107FE0001092C1001092C200E0E0F0E009950895FF
:087FF000464478426F6F7400F3
:0400000300007C007D
:00000001FF
