:101C000011241FBE04E00EBF0FE50DBFA89584B7D9
:101C1000877F84BF81B5886181BD11BC10E0A0E6DB
:101C2000B0E0E4E5FFE102C005900D92A836B107EF
:101C3000D9F7CDB7DEB7C854D109DEBFCDBF19B8CB
:101C40001BB888E18AB986E880BD512C88E0E0E6BF
:101C5000F0E0DE01AF5BBF4F01900D928A95E1F796
:101C600085E083BFBD9AA59AC59AE12CF12C412C41
:101C700000E010E0A12CB12CCE0101966C0135E002
:101C8000232E08B600FE21C088B7816088BFEE20F1
:101C900079F0F39499E59F15C0F480E09FE35D9B94
:101CA000FECF9CB98F5F8038D1F788E081BDFFCF30
:101CB0004394FEE0F41548F413BE1AB810BC17BAEA
:101CC00018BA14BA15BAF50109955F9BB5C08CB165
:101CD000813509F4A6C0F0F4853409F485C050F4C8
:101CE000813409F446C0823409F460C08B3109F0B4
:101CF0009BC09FC08C3409F490C028F4863409F04E
:101D000093C080E08FC08E3409F489C0803509F417
:101D100084C08AC0853609F465C0E0F4843509F4CE
:101D200078C060F4833509F07FC07E01F1E4EF0EE6
:101D3000F11C470137E0830E911C5EC0863509F423
:101D400063C0823609F070C089E5AAD080E0A8D0CF
:101D500080E45DC0803709F45EC018F48736B1F0C6
:101D600063C0833709F442C0843709F05DC080E066
:101D70004EC05F9BFECF8CB15F9BFECF0CB110E0DD
:101D8000182B5D9BFECF8DE08CB955C05F9BFECFBD
:101D90008CB15F9BFECF6CB15F9BFECF4CB1C59801
:101DA000AD98C801880F991F83D045C05F9BFECFB7
:101DB0008CB15F9BFECF3CB05F9BFECF8CB1C59AD0
:101DC000AD9AC598F6018E2F8C19831528F45F9B68
:101DD000FECF8CB18193F7CF3801660C771C6894E5
:101DE00050F829C093D027C0A4D025C087E058D090
:101DF00083E956D08EE10BC0F70181917F0150D06D
:101E00008E149F04C9F715C081E34AD086E348D0F9
:101E100012C04AD002C083E5FACF8DE0F8CF83E04C
:101E200001C082E06BD0F3CF5D9BFECFFFE3FCB936
:101E300002C0EE24E394F12C51FE08C007B600FC6A
:101E400005C031E137BFE895E89451F850FE19CF4D
:101E500051FC17CF80E08315B8F4A82FB0E0F6014D
:101E6000EA0FFB1F9081E2E0F0E0EC0FFD1FEA0FAC
:101E7000FB1F208131E0FD01092E122E3093570007
:101E8000E89511248E5FE7CFF30127BEE8956894AB
:101E900051F8E89450F85D9BFECF8DE08CB9F1CEFF
:101EA0005D9BFECF8CB908955F9BFECF8CB10895EA
:101EB0000F931F93CF93DF93062F07B600FE06C044
:101EC00007B600FCFDCF21E127BFE895EC0110E04B
:101ED000101779F0FE01C895802DE2DF1F3131F433
:101EE00087EC90E00197F1F700C000001F5F21969A
:101EF000EFCFDF91CF911F910F91089599E0FF27C8
:101F0000E82F90935700C895802D0895E0E0F0E009
:101F100083E007B600FCFDCF87BFE89507B600FC5D
:101F2000FDCFE05CFF4FE1159CE1F90791F78DE0F3
:101F3000B7CF17BA18BA14BA15BA8DE0B1DF8DE071
:101F4000AFDF5D9BFECF13BE1AB810BCE0E0F0E03F
:041F50000995089552
:081F5400464478426F6F7400EF
:0400000300001C00DD
:00000001FF
